:100000003CC100000C9402130C9433130C94641341
:100010000C9495130C94C6130C94F7130C94281499
:100020000C9459145BC1000059C1000057C1000075
:1000300055C1000053C1000051C100004FC1000074
:100040004DC100004BC1000049C1000047C1000084
:1000500045C1000043C1000041C100000C948A1456
:100060003DC100000C94BF170C94F51737C1000078
:1000700035C1000033C1000031C100002FC10000B4
:100080002DC100002BC1000029C1000027C10000C4
:1000900025C1000023C1000021C100001FC10000D4
:1000A0001DC100001BC1000019C1000017C10000E4
:1000B00015C1000013C1000011C100000FC10000F4
:1000C0000DC100000BC1000009C1000007C1000004
:1000D00005C1000003C1000001C10000FFC0000015
:1000E000FDC000003007A40777075B07CD07CD07E9
:1000F0002307CD072307CD07230723072307CD07B2
:1001000023072307DC12A612AE12BA12C712E81296
:10011000F5127F158215711575157B15B9158615A4
:100120008A159015941598159E15A215A615B91542
:10013000AC15B015B41505A84CCDB2D44EB93836AF
:10014000A9020C50B9918688083CA6AAAA2ABE002A
:100150000000803F00000A0B02090C0D0E08070387
:10016000040100000000000000000000000000008A
:10017000000000000000000000000000000000007F
:10018000121110000000000000000000000000003C
:100190000000000000000000000001021020200804
:1001A00008102040102040800201020108040201D2
:1001B0000102040810204080804020100804020141
:1001C000800402018040201008040201080402019A
:1001D0000102040810204080010204081020408021
:1001E00005050505070508080808020202020A0AB3
:1001F00008080404040401010101010101010303D1
:10020000030303030303040707070C0C0C0C0C0C7B
:100210000C0C0202020206060606060606060B0B78
:100220000B0B0B0B0B0B00002000230026002900FA
:100230002C002F003200000100000301060109011B
:1002400000002200250028002B002E003100340081
:1002500002010000050108010B010000210024003B
:1002600027002A002D0030003300010100000401A6
:1002700007010A01550A2718BC0A11241FBECFEF37
:10028000D1E2DEBFCDBF00E00CBF12E0A0E0B2E0E3
:10029000E8E1F8E300E00BBF02C007900D92A2373F
:1002A000B107D9F728E1A2E7B2E001C01D92A33C53
:1002B000B207E1F712E0C8E7D2E000E006C02297FB
:1002C0000109FE010BBF0E94C31BC437D10780E0A8
:1002D0000807A9F70E946B180C94FB1B91CE8FEFB7
:1002E0009FEF909373028093720281E08093740277
:1002F000089581E0809374020895CF93DF9382E0A4
:100300000E942816EC0184E00E942816C817D9071D
:1003100019F46FEF7FEF02C061E070E08091F21698
:100320009091F316009741F0019761F481E593E015
:10033000DF91CF910C94F80C8AEE93E0DF91CF918E
:100340000C94CE0FDF91CF91089510927402109209
:100350007302109272026FEF7FEF8AEE93E00C94BB
:10036000901185E792E00E94DC0A88EB92E00E94FF
:10037000770C81E593E00C94850CDC01ED91FC9108
:100380000190F081E02D1994DC01ED91FC91019038
:10039000F081E02D199441E052E066E377E185E7D2
:1003A00092E00E94430B10923E1710923F1710925A
:1003B0004017109241178091F2169091F3168130F8
:1003C000910579F018F00297B9F022C081E080938E
:1003D0003E1790919B159923D9F092E09093401786
:1003E00015C081E080933F1790915103992381F0CC
:1003F00092E090933E170AC081E08093401790915D
:100400005103992329F092E090933F17809341176D
:1004100080917402809342170895CF93C82F682F5C
:10042000617088E00E94F3156C2F627089E00E9471
:10043000F3156C2F64708AE0CF910C94F315BF9282
:10044000CF92DF92EF92FF920F931F93CF93DF93A0
:1004500060E086E00E94F31506E517E1C7E1D0E011
:1004600088EEC82E83E0D82EE12CF12CBB24B39467
:10047000F80182918F0182302CF461E0811115C066
:1004800060E013C00E94D4149B01AC01F801A0816C
:10049000BB27A7FDB0950E94BD1BA70196010E9436
:1004A000951B21703327622F6170C330D10508F48A
:1004B0006B2587E00E94F31561E085E00E94F3154B
:1004C00060E085E00E94F3152197C73FFFEFDF074B
:1004D00079F661E086E0DF91CF911F910F91FF9057
:1004E000EF90DF90CF90BF900C94F31561E085E022
:1004F0000E94BA1561E086E00E94BA1561E087E0CB
:100500000E94BA1561E088E00E94BA1561E089E0B6
:100510000E94BA1561E08AE00E94BA1561E08DE0A0
:100520000E94BA1560E082E00E94BA1560E084E0A3
:100530000E94BA1561E082E00E94F31561E084E058
:100540000E94F31541E050E06DE771E080E00E9409
:1005500091121092F5161092F41680E090E05DDF93
:100560006EDF86E390E09093A3158093A21541E09F
:1005700050E061E082EA95E10E948C1242E050E096
:1005800061E082EA95E10E948C1244E050E061E073
:1005900082EA95E10E948C1246E050E061E082EA36
:1005A00095E10E948C1287E390E09093CD158093A3
:1005B000CC1541E050E061E08CEC95E10E948C129A
:1005C00042E050E061E08CEC95E10E948C1244E046
:1005D00050E061E08CEC95E10E948C1246E050E026
:1005E00061E08CEC95E10E948C128AE390E090939C
:1005F000F7158093F61589E390E090932116809388
:1006000020168DE390E090934B1680934A1661E09C
:100610008AE496E10E9480128BE390E09093751635
:100620008093741661E084E796E10E9480128CE367
:1006300090E090939F1680939E1661E08EE996E17C
:100640000E94801241E050E060E08EE996E10E9455
:100650008C1242E050E060E08EE996E10E948C123C
:1006600088E390E09093C9168093C81661E088EC07
:1006700096E10E94801226E042E15AE760E070E0D5
:1006800080910B1890910C180E945F1781E0809365
:100690007D1710927C1710927B171092841710927E
:1006A0008317109282171092811710920A181092D5
:1006B000871710928617109285171092881710923C
:1006C0008917EAE7F7E18081817082608160808329
:1006D000E6E5F7E189E094E0918F808F8FE691E085
:1006E000938F828F85EA91E0978F868F89E791E0DB
:1006F000958F848F08950F931F93CF93DF938C0171
:10070000EB016D3F710554F46A3F710564F4663F77
:10071000710549F0683F710599F405C0CB018E5F02
:100720009109029768F4F801EB54FF4F80819181A1
:10073000DC01ED91FC910190F081E02D6C2F199579
:10074000C63FD10511F4F80116A2DF91CF911F9198
:100750000F910895EF92FF920F931F93CF93DF9322
:10076000EB01F22E0150003118F46038710524F4C9
:10077000DC0196961C9246C0613E7105B4F54F7738
:10078000E42E602BFC0136A18C010B541F4F361751
:1007900059F066A3D8018D919C91DC01ED91FC91FB
:1007A0000190F081E02D1995F80180819181DC01A3
:1007B000ED91FC910190F081E02D6E2D1995CF7E89
:1007C000C03CD105F9F0F80180819181DC01ED9107
:1007D000FC916F2D6F770190F081E02DDF91CF912B
:1007E0001F910F91FF90EF9019949B01265F3109A3
:1007F0002A30310538F4DF91CF911F910F91FF908E
:10080000EF9079CFDF91CF911F910F91FF90EF90F3
:100810000895EF92FF920F931F93CF93DF93CDB77D
:10082000DEB760970FB6F894DEBF0FBECDBF8091E4
:1008300072029091730201969093730280937202F8
:1008400063E070E00E94821B892B89F58AEE93E0B9
:100850000E949011BE016F5F7F4F8AEE93E00E946D
:100860009B11CE0101967C0114E2F70181917F0179
:100870009FEF980F923050F461E08DE00E94F315E5
:1008800005E02FE7412F60E970E00BC08F3F61F476
:1008900060E08DE00E94F31505E02FE7412F60E84E
:1008A00070E086E597E156DF1F5F1433F1F660963E
:1008B0000FB6F894DEBF0FBECDBFDF91CF911F9171
:1008C0000F91FF90EF900895EF92FF920F93CF93C7
:1008D000DF9392EAE92E95E1F92EC0E0D0E0609135
:1008E000F4167091F516C7010E942D128F3F2FEF5D
:1008F000920789F0FE01EF5BFD4F2091F4163091D5
:10090000F516E20FF31F04E0282F408160EB70E042
:1009100086E597E11FDF8AE2E80EF11C2896C032D7
:10092000D105E9F6DF91CF910F91FF90EF900895F7
:100930000F93CF93DF93EC01499147FD09C005E088
:100940002091530360E870E086E597E103DFF4CF80
:10095000DF91CF910F910895EF92FF920F931F9324
:10096000CF93DF9300D01F92CDB7DEB78091750291
:100970008823C9F0BE016F5F7F4F85E792E0D0D634
:10098000CE0101967C0111E2F70121917F012F3FF9
:1009900039F004E0412F60EB70E086E597E1DADEA4
:1009A0001F5F153289F70F900F900F900F90DF9116
:1009B000CF911F910F91FF90EF9008954F925F920A
:1009C0006F927F929F92AF92BF92CF92DF92EF92FF
:1009D000FF920F931F93CF93DF935AE4C52E56E1F6
:1009E000D52EE12CF12C64E0A62EB12C9924939401
:1009F0006091F4167091F516FB01EF5DFD4FEE0D61
:100A0000FF1D1081C12FDD27C7FDD095C6010E94B3
:100A10002D12BC018F3F2FEF920709F47BC086E0B7
:100A2000A816B10491F42091F4163091F5162130F6
:100A3000310521F485E792E03ED69FC02230310592
:100A400021F485E792E040D698C061157105D9F48C
:100A5000C031D1050CF091C08091F2169091F3163F
:100A6000019729F4612F81E593E05ED761DFFE01F4
:100A7000EE0FFF1FEE0FFF1FEA50F94E108211829A
:100A8000128213824AC0161617060CF043C0C031FA
:100A9000D1054CF58091F2169091F316009781F0F4
:100AA000019799F4612F81E593E030D705E020911B
:100AB0005303482F60E970E086E597E14BDE05C0FF
:100AC000BE018AEE93E00E94730F0E94D414FE01CF
:100AD000EE0FFF1FEE0FFF1FEA50F94E6083718388
:100AE000828393831AC0659781F48091740289256B
:100AF00080937402882319F06AEF70E002C06CEFF3
:100B000070E086E597E1F7DD38C0612F85E792E078
:100B100054D533C0C031D10584F58E01000F111FAB
:100B2000000F111F0A50194EF80180819181A28196
:100B3000B381892B8A2B8B2B01F10E94D414F801ED
:100B40004080518062807380641975098609970915
:100B50006C3D75408105910580F0F801108211828D
:100B6000128213828091F2169091F316892B29F448
:100B7000BE018AEE93E00E94BB0FFFEFAF1ABF0ADF
:100B800028E0E20EF11C8AE2C80ED11CE0E2EE166B
:100B9000F10409F02DCFDF91CF911F910F91FF90BC
:100BA000EF90DF90CF90BF90AF909F907F906F902D
:100BB0005F904F900895DC01D0968D919C91D197D4
:100BC000813F910509F4BCC03CF5803B910509F4D7
:100BD0005FC07CF480399105E9F1803A910509F410
:100BE00074C08038910509F0D8C0ED91FC9111973F
:100BF00070C0803D910509F478C02CF4803C9105CB
:100C000009F478C00895803E910509F446C0803FFC
:100C1000910509F47CC008958A3F910529F174F487
:100C2000833F910509F4A4C00CF48FC0863F910561
:100C300009F4A7C0883F910591F008958C3F910574
:100C4000E9F0BCF08E3F9105F1F08F3F910509F47A
:100C50009DC008951296ED91FC9113973AC0589655
:100C6000ED91FC91599796C05A96ED91FC915B9746
:100C700091C05C96ED91FC915D978CC05E96ED9174
:100C8000FC915F9787C09096ED91FC91919782C0FF
:100C90001696ED91FC9117971CC01C96ED91FC9156
:100CA0001D97309709F479C0D3966C91D3976F77DD
:100CB00020E8629FB0011124D2968C91D2978F7751
:100CC000682B70529F968C9119941496ED91FC911B
:100CD0001597309709F461C0D3964C91D397D2966B
:100CE0006C91D2979F968C9119941A96ED91FC91E4
:100CF0001B9704C01896ED91FC911997309709F451
:100D00004CC0D2966C91D2979F968C9119941E9656
:100D1000ED91FC911F97309709F43FC0D3966C91E9
:100D2000D39770E0762F6627D2968C91D297682B56
:100D30006138710510F060E870E0CD01C496199437
:100D40005096ED91FC91519717C05296ED91FC9100
:100D50005397309711F1D3968C91D3978F7720E8E2
:100D6000829FC0011124D2962C912F77822B199447
:100D70005496ED91FC915597309779F0D2968C91DD
:100D800019945696ED91FC91579704C09296ED9167
:100D9000FC919397309709F019940895AF92BF9200
:100DA000CF92DF92EF92FF920F931F93CF93DF9337
:100DB0001F92CDB7DEB75C01DC0194968C919497BD
:100DC00080FFEBC0982F9E7F09F4E7C0D0966D910D
:100DD0007C91D1979B01205831092136310540F58E
:100DE0009F960C919F9797969C9121E0091711F07F
:100DF000911120E0869590E08230910539F08330A2
:100E0000910581F0019709F0C8C00EC0222309F4B2
:100E1000C4C0D501D3962C91D397D2964C91C501DD
:100E200099DCBBC02111B9C0F50123A942A9F7CFB4
:100E3000FB01E05FF109E031F10508F0AEC0EE58CA
:100E4000FF4F0C94B71BC5010F90DF91CF911F91FD
:100E50000F91FF90EF90DF90CF90BF90AF904BCC71
:100E600085010C5C1F4FD501D3968C91D39790E0F0
:100E7000982F8827D2962C91822B8138910510F0DB
:100E800080E890E06C01C00ED11E7501B5EBEB0E51
:100E9000F11C0C151D0509F47EC0F70180819181BC
:100EA000D8016D918D01DC01ED91FC910190F081F3
:100EB000E02D1995EECFD501D296FC9085010B540B
:100EC0001F4FF80180819181DC01ED91FC9101902F
:100ED000F081E02D63EF19956F2D6F7770E0F801C9
:100EE0008081918151DAD50196961C9256C0F50108
:100EF00003A9F0E80F9F80011124D501D2968C91AF
:100F0000082B7501B5EBEB0EF11CF7018081918187
:100F1000DC01ED91FC910190F081E02D62EF1995DB
:100F2000B8016F777727F7018081918126DAB801C0
:100F3000660F672F661F770B71956F777727D7013D
:100F40008D919C911ADA27C0D501D2968C91877029
:100F5000B0E18B9FC0011124F50123A92F70282B2C
:100F600085010B541F4FD8018D919C91DC01ED91AF
:100F7000FC910190F081E02D61EF29831995F80132
:100F800080819181DC01ED91FC910190F081E02D57
:100F90002981622F1995F50116A20F90DF91CF914B
:100FA0001F910F91FF90EF90DF90CF90BF90AF9087
:100FB00008959C012F7C2038310569F0803D910512
:100FC00051F0803E910539F021E0803C910509F017
:100FD00020E0822F089581E0089587FF0DC09CE0F6
:100FE000980F923048F0893F39F08D3F29F0803FCB
:100FF00008F4807F90E0089580E090E00895CF921B
:10100000DF92FF920F931F93CF93DF931F92CDB781
:10101000DEB7F0907D1720E12F1508F4B8C180915C
:101020000B1890910C18DC01ED91FC910480F58176
:10103000E02D1995892B09F4AAC180910B18909184
:101040000C18DC01ED91FC910680F781E02D1995DB
:101050006C018091831790918417009709F0BCC0B0
:10106000C0927E1710917B17812FB7DFA2DF8823F4
:1010700061F0C7FC0AC010937E17C0927F1781E011
:1010800090E0909384178093831710917E17812F9F
:10109000A4DF813F910509F461C084F5803B91058F
:1010A00009F45FC06CF48039910509F45AC0803AA4
:1010B000910509F456C08038910509F0EFC051C080
:1010C000803D910509F44AC02CF4803C910509F457
:1010D00045C0E4C0803E910509F443C0803F9105BE
:1010E00009F0DCC020E830E03093821720938117AC
:1010F00010927B1720EF20938A1739C0883F910503
:10110000B9F044F4833F910549F15CF1863F9105C4
:1011100079F0C4C08A3F91050CF4C0C08D3F9105A1
:101120003CF09C012E5F31092230310508F0B6C039
:1011300090938717809386171092851710928817BF
:101140001092891781E080930A18109284171092E8
:101150008317109282171092811702C122E030E0AB
:1011600002C023E030E03093821720938117209152
:101170008317309184174091811750918217BA01DB
:10118000615071092617370700F1909387178093F4
:101190008617812F8F708F5F8093851780917F17BF
:1011A000809388174330510529F4809180178093EC
:1011B000891702C010928917109284171092831712
:1011C000109282171092811728C02F5F3F4F3093E3
:1011D000841720938317DBC0C7FE47C096013327CF
:1011E0002D3F310554F42A3F31056CF4273F31057A
:1011F000C1F0283F3105C9F506C0A9014E5F51096C
:101200004230510590F5309387172093861710923E
:101210008817109289171092851781E080930A1819
:101220009FC020918A17203FC9F59C012F5F3F4F37
:10123000FC01EA5AF84E47EF44AB80EF90E0909300
:1012400087178093861720938817309389171092F9
:10125000851781E080930A181092841710928317E3
:10126000109282171092811772C020917E17FC0194
:10127000EA5AF84E203F11F4C4AA01C0C0A600915A
:101280008117109182179801215031098217930715
:1012900008F460C020917E17203F59F41092841703
:1012A00010928317109282171092811710927B1759
:1012B0006EC0822F298391DE6C01909387178093F3
:1012C000861777DE2981882331F0822F8F708F5F18
:1012D0008093851702C01092851780917F178093A5
:1012E00088170330110529F480918017809389179E
:1012F00002C01092891710928417109283171092CF
:1013000082171092811781E080930A18B0EBCB16F8
:10131000D104D1F06CF4F0E9CF16D104A9F080EA41
:10132000C816D10489F0A0E8CA16D10481F40CC013
:10133000B0EDCB16D10441F0E0EECE16D10421F091
:10134000F0ECCF16D10419F420937B1709C010924A
:101350007B1706C00196909384178093831717C05C
:1013600080918617909187178039910529F4809193
:101370008917882309F489C080918617909187176F
:10138000009709F071C06F2D86E597E107DD9CDAC3
:1013900015DBE2DA8091F4169091F51601968770CC
:1013A00099279093F5168093F41637D88091F41608
:1013B0009091F516892B09F06FC021E08091CA1633
:1013C0009091CB16CD970CF420E020939B152093A1
:1013D00051031091F2168091A0169091A116CD970D
:1013E00064F01092F3161092F21641E052E066E3B8
:1013F00077E18AEE93E035D61AC08091A6169091D7
:10140000A716CD973CF082E090E09093F31680937E
:10141000F2160DC081E090E09093F3168093F216DF
:1014200041E052E066E377E181E593E020D38091EB
:10143000F2169091F316212F332727FD30952817A8
:10144000390731F0113021F481E593E0A1D270DA4F
:101450000E94CB010F90DF91CF911F910F91FF90D0
:10146000DF90CF900C941F0280589109813691052E
:1014700040F480917D1790918517981711F0811194
:1014800082CF86E597E197DB7ECF80E890E090936E
:1014900087178093861770CF0F90DF91CF911F91A0
:1014A0000F91FF90DF90CF900895CF93DF9386E266
:1014B00098E190930C1880930B1810925717109284
:1014C0005617109259171092581710925B171092D6
:1014D0005A1710925D1710925C1710925F171092B6
:1014E0005E17109261171092601710926317109296
:1014F0006217109265171092641710926717109276
:101500006617109269171092681710926B17109255
:101510006A1710926D1710926C1710926F17109235
:101520006E17109271171092701710927317109215
:1015300072171092751710927417109277171092F5
:1015400076171092791710927817C2EAD5E1CE017A
:1015500030D7AA9686E1C23FD807C9F78AEE93E052
:1015600096D481E593E0C4D188EB92E0B3D185E7CE
:1015700092E0DF91CF9102C00C94B101FC0116A260
:1015800015A2DC01DF961D921D921D921C921397ED
:1015900010824FE35FE3BA0147A350A761A772A788
:1015A0004AE05AE0BA0143A754A765A776A7158A6F
:1015B000168A178A108E08950895BF92CF92DF92EF
:1015C000EF92FF920F931F93CF93DF93EC01B62E10
:1015D0000E94D4148E01015C1F4FF801C080D1809D
:1015E000E280F3806C197D098E099F09693C7105C1
:1015F00081059105F0F10E94D414F8016083718394
:101600008283938360EF6B0D772767FD70957EA3D0
:101610006DA3FE01E60FF71F818191E08927818389
:101620008B01000F111F000F111F882351F00E9422
:10163000D414FE01E00FF11F6583768387839087C2
:1016400007C0FE01E00FF11F158216821782108677
:10165000158A168A178A108E8981811108C08A819D
:10166000811105C08B81811102C08C8101C081E094
:101670008883DF91CF911F910F91FF90EF90DF90C2
:10168000CF90BF900895405F5F4F21E030E0DA01D6
:10169000ED91AD01DB01AE0FB11DE7FDBA95FD0186
:1016A000DC01A20FB31FAC91A0832F5F3F4F253009
:1016B000310569F70895DC019596ED91FC919697B7
:1016C000E80FF91F67A30895CF93DF93FC01C5A12D
:1016D000D6A16115710559F4FE01EE0FFF1FEE0F43
:1016E000FF1FE80FF91F158A168A178A108ECC0F74
:1016F000DD1FCC0FDD1FC80FD91F882777FD809510
:10170000982F0E94A31920E030E040E85CE30E949B
:10171000AA1A6BA77CA78DA79EA7DF91CF910895EA
:101720002F923F924F925F926F927F928F929F92F1
:10173000AF92BF92CF92DF92EF92FF920F931F93DF
:10174000CF93DF9300D000D0CDB7DEB71C017B0173
:101750000E94D4142B013C0187013E822D82A12CD2
:10176000B12C41018A0C9B1CF4018181882309F46E
:1017700085C0ED81FE8185819681A781B0854582F6
:10178000568267827086F2E0AF16B1040CF06AC030
:10179000A3019201281B390B4A0B5B0BCA01B9014B
:1017A0000E94A1192EE233EE4DEC5BE30E94AA1ACF
:1017B000ED81FE8123A534A545A556A50E94AA1A50
:1017C0009B01AC01ED81FE81658976898789908DC9
:1017D0000E94A018ED81FE81658B768B878B908FA0
:1017E000ED81FE81C588D688E788F08C2BED3FE03F
:1017F00049EC50E4C701B6010E94A61A18164CF431
:101800002BED3FE049EC50E4C701B6010E949F1860
:10181000E1CFC701B6010E940D1B9B01AC01F40191
:1018200087A1992787FD909595958795BC01882775
:1018300077FD8095982F29833A834B835C830E94A0
:10184000A31929813A814B815C810E94AA1A20E068
:1018500030E04CE752E40E94A0180E947019F80191
:10186000608303C02FE3F8012083F8018081F40135
:1018700093AD891719F0F40183AF03C02FEFF8017E
:1018800020833FEFA31AB30A0F5F1F4F4D815E8184
:101890004C5F5F4F5E834D8354E0A516B10409F0A1
:1018A00060CF26960FB6F894DEBF0FBECDBFDF9196
:1018B000CF911F910F91FF90EF90DF90CF90BF904D
:1018C000AF909F908F907F906F905F904F903F90E0
:1018D0002F900895FC01108284E0818380E482834C
:1018E000E956FF4F88E090E0918380830895089542
:1018F000FC01108284E0818380E48283E956FF4FFB
:1019000088E090E09183808308950895FC01862FFC
:10191000918120E1929F800D1124E80FF11D87FD38
:10192000FA9591E0978B0895CF93DF93CDB7DEB70B
:1019300029970FB6F894DEBF0FBECDBF20E030E090
:1019400040E0860F911D67FD9A95FC01E20FF31FA1
:101950005789552369F0A1E0B0E0AC0FBD1FA40F7B
:10196000B11D47FDBA95562F520F5C93178A4F5FF2
:10197000205F3F4F2038310541F7CE01019629966F
:101980000FB6F894DEBF0FBECDBFDF91CF910895A3
:10199000CF93DF93CDB7DEB7C158D1090FB6F89416
:1019A000DEBF0FBECDBF20E030E040E0FC01E20F23
:1019B000F31F5789552359F0A1E0B0E0AC0FBD1FCC
:1019C000A40FB11D47FDBA952C93178A4F5F2F5F67
:1019D0003F4F2038310551F7CE010196CF57DF4FE9
:1019E0000FB6F894DEBF0FBECDBFDF91CF91089543
:1019F000CF93DF93EC018881882309F1FE01E9563A
:101A0000FF4F80819181860F971F8131910514F0DE
:101A100080E190E097FF02C080E090E091838083B6
:101A2000BC0175956795882777FD8095982F0E9452
:101A3000A3190E94DE190E947019698315C08A815A
:101A400093E0660F771F9A95E1F7680F711D87FD88
:101A50007A951616170634F46038710524F06FE78E
:101A600070E001C060E06A83DF91CF9108950F9329
:101A70001F93CF93DF93FC01DA019A0180E090E09D
:101A8000E90149919E011181EB01C40FD11D47FD70
:101A9000DA95AE01EF01C80FD91F00E11002C00DA9
:101AA000D11D11241F89EA01188301968031910507
:101AB00039F7908150968C915097EB01C80FD11D4A
:101AC00087FDDA959923A1F18181815091E08430DD
:101AD00008F090E0988351968C915197EB01C80FD4
:101AE000D11D87FDDA958181825091E0843008F024
:101AF00090E0988352968C915297EB01C80FD11DBC
:101B000087FDDA958181835091E0843008F090E080
:101B1000988353968C91DB01A80FB11D87FDBA9570
:101B20008181845091E0843008F090E09C932FC034
:101B300081E0928119160CF080E0888351968C9197
:101B40005197EB01C80FD11D87FDDA9581E0928195
:101B500091320CF480E0888352968C915297EB017D
:101B6000C80FD11D87FDDA9581E0928191340CF484
:101B700080E0888353968C91DB01A80FB11D87FD0F
:101B8000BA9581E0928191360CF480E08C93DF91DC
:101B9000CF911F910F910895DF92EF92FF920F93D3
:101BA0001F93CF93DF938C01EB017C0187EEE81A42
:101BB0008EEFF80AD7014C9150E09B01240F351F9E
:101BC000CB018217930744F4F801E80FF91F6481F1
:101BD000611105C00196F5CFDD24D39401C0D12C4D
:101BE00060E070E0CE010496800F911F0E94F41B0C
:101BF000DD2021F1F801EC0FFD1FD7018C918483CA
:101C0000CE010197AE0148505109289714F440E0E5
:101C100050E021E030E04817590784F4F801E80F5C
:101C2000F91F648170E02617370724F475956795CE
:101C30006483F7CF01972F5F3F4FEDCFDF91CF91B7
:101C40001F910F91FF90EF90DF900895EF92FF9218
:101C50000F931F93CF93DF93FC01EC57FF4F20E8C6
:101C6000DF011D922A95E9F720E030E04FEF5FEFAA
:101C700060E070E0FF24FA94DC01A85EBE4F11E042
:101C8000C2E0EC2EF901EF77FF27E80FF91F4F3F75
:101C9000CFEF5C0771F0E901C41BD50BC617D7075E
:101CA00044F0EF01CC57DF4FF8824FEF5FEF60E079
:101CB00070E004810023D9F01C93EF01CC57DF4F73
:101CC000C881CF3F51F04F3FDFEF5D0751F0E90191
:101CD000C41BD50B6C177D0724F0EC57FF4FE08237
:101CE00003C0EC57FF4F1083602F70E0A9012F5FF6
:101CF0003F4F2138310531F6DF91CF911F910F9180
:101D0000FF90EF900895FF920F931F93CF93DF936F
:101D10009C01FC01EC5FFE4F84E1DF011D928A957E
:101D2000E9F775964081C42FD0E08E0184E0000F62
:101D3000111F8A95E1F7E0E0F0E0FF24F394E0174B
:101D4000F1079CF4D901AE0FBF1F14968C91882324
:101D500051F0CF01BE010E94821B620F731FDB0195
:101D6000AC5FBE4FFC923196EACFF901EC5EFE4FBC
:101D700081E0411101C080E08083F901EB5EFE4FFC
:101D800081E0423008F480E08083F901EA5EFE4F92
:101D900081E0443008F480E08083F901E95EFE4F81
:101DA00081E0483008F480E08083DF91CF911F917B
:101DB0000F91FF900895EF92FF920F931F93CF938F
:101DC000DF93EC017C0187EEE81A8EEFF80AF70149
:101DD0000081600380011124003811055CF4B80112
:101DE000CE01DADEF7018081F0E18F9F000D111D39
:101DF0001124F2CFCE012ADFCE01DF91CF911F91C6
:101E00000F91FF90EF907FCFCF93DF93EC01FC0118
:101E1000E85EFE4F10821ADFCE01DF91CF9173CFC3
:101E2000FC011082118212821382E85EFE4F108242
:101E3000319628E02083319627E02083E5CF875E26
:101E40009E4FFC0180810895FC01E65EFE4F2081DB
:101E5000620F711D1616170634F46830710524F0F0
:101E600067E070E001C060E06083FC01E75EFE4F68
:101E7000623010F421E009C0643010F422E005C0A3
:101E8000663010F424E001C028E020833CCFEF92BC
:101E9000FF920F931F93CF93DF93EC018C017C0192
:101EA00080E5E81A8EEEF80AC801BADF055E1E4F1B
:101EB0000E151F05C9F7F8011082FE01EF54FE4E02
:101EC000108231961082118212821382CA54DE4E21
:101ED0008FEF9FEF99838883DF91CF911F910F91AF
:101EE000FF90EF9008958F929F92AF92BF92EF92E2
:101EF000FF920F931F93CF93DF938C017B0160318F
:101F0000710570F5F801EF54FE4E8081882319F0B9
:101F10003197608325C048D5E801CE54DE4E8880D5
:101F20009980AA80BB80681979098A099B09693C54
:101F3000710581059105A0F0F801E055FE4E408144
:101F40002BE131E04203C001439F900D11246E2D1F
:101F5000800F911F30DF28D5688379838A839B8324
:101F6000DF91CF911F910F91FF90EF90BF90AF90B5
:101F70009F908F900895FC01EF54FE4E2081222304
:101F800061F04BE151E0649F9001659F300D749FBB
:101F9000300D1124820F931F37CF0895EF92FF92D7
:101FA0000F931F93CF93DF93FC01EF54FE4E2081DC
:101FB0003197222389F010814BE151E01403900105
:101FC000159F300D1124820F931FDF91CF911F9128
:101FD0000F91FF90EF9038CF40812BE131E0420329
:101FE000E001439FD00D1124C80FD91F882777FD2A
:101FF0008095982F0E94A3192DEC3CEC4CEC5DE3EE
:102000000E94AA1A288139814A815B810E94A01806
:102010007B018C0120E030E040E85FE30E9404197E
:1020200087FF0EC020E030E0A901B701C8010E947F
:10203000A61A18164CF0E12CF12C00E010E004C0B8
:10204000E12CF12C00E81FE3A701B8014883598374
:102050006A837B83DF91CF911F910F91FF90EF9067
:1020600008952F923F924F925F926F927F929F922C
:10207000AF92BF92CF92DF92EF92FF920F931F9396
:10208000CF93DF93EC018B017A01FA011C0120E070
:1020900030E06C014FE4C41A4EEED40A3C0150E526
:1020A000651A5EEE750A8BE1482E55245394819192
:1020B0005801A80EB11C87FDBA94D6018C918823D3
:1020C00021F0C101885E9E4F0FC0D3019C90692D05
:1020D000A2016403C001659F900D11248C0F9D1F08
:1020E000820F931F8C5F9E4FDC018C91D5018C93E6
:1020F0002F5F3F4FB5EE2B1ABEEF3B0A2031310563
:10210000B1F65E01E0E5AE1AEEEEBE0AD5014C91E5
:102110002BE131E04203C001439F900D11248C0F4D
:102120009D1F8DDEF6019081992309F43EC0D501F3
:102130009C91F701E90FF11D97FDFA959081F80147
:10214000E90FF11D97FDFA9592E09083F7019089D0
:10215000F801E90FF11D97FDFA9591E0823008F43E
:1021600090E09083D70151969C91F801E90FF11D01
:1021700097FDFA9591E0843008F490E0908391E027
:10218000883008F490E0F7018289F801E80FF11D2A
:1021900087FDFA959083D70153968C91F801E80F4B
:1021A000F11D87FDFA959083A9C0FE01EA54FE4E09
:1021B0002081318137FD17C0682F70E0C9010E946E
:1021C000821B6F7077276E0D7F1DFB018081F801E8
:1021D000E80FF11D87FDFA958081811102C081E031
:1021E00001C088E28083D70150968C916801C80EA7
:1021F000D11C87FDDA94F50140812BE131E04203E7
:10220000F001439FF00D1124EC0FFD1F99249394CE
:1022100020E030E0A90160817181828193810E9478
:10222000A61A18160CF0912CD6019C92F701818900
:102230006801C80ED11C87FDDA94D5014C912BE1C1
:1022400031E04203F001439FF00D1124EC0FFD1F1C
:102250009924939420E030E040E85EE3608171814E
:10226000828193810E94A61A18160CF0912CF60117
:102270009082D70152968C916801C80ED11C87FDBF
:10228000DA94F50140812BE131E04203F001439FF4
:10229000F00D1124EC0FFD1F9924939420E030E001
:1022A00040E05FE360817181828193810E94A61A80
:1022B00018160CF0912CD6019C92F7018389080F17
:1022C000111D87FD1A95D5014C912BE131E0420398
:1022D000F001439FF00D1124EC0FFD1FC1E020E041
:1022E00030E040E45FE360817181828193810E94EC
:1022F000A61A18160CF0C0E0F801C083DF91CF9148
:102300001F910F91FF90EF90DF90CF90BF90AF9013
:102310009F907F906F905F904F903F902F90089587
:10232000FC01EA54FE4ECB0160E870E00E94821B83
:10233000918380830895EF92FF920F931F93CF9321
:10234000DF93DC01FB0140E050E07C012AE4E21A6B
:102350002EEEF20A0BE111E09D01285E3E4FE901ED
:1023600028812223B1F0E7016881798177FD11C0CE
:10237000409F9001419F300D509F300D1124280F38
:10238000391F260F371F2C573F4FE9012881208323
:1023900001C010824F5F5F4FA55EBE4F3196403146
:1023A0005105D1F6DF91CF911F910F91FF90EF90E2
:1023B0000895FC01138E128E158E148E178E168EB4
:1023C00011A210A213A212A215A214A217A216A261
:1023D00011A610A6089563307105C4F06D3F83E027
:1023E0007807BCF463507109882777FD8095982F92
:1023F000AAD72FE135E841E051E40AD720E030E0E8
:1024000040E85FE39DD66CD7CB01089580E090E073
:1024100008958FE790E0089561157105C1F06F3759
:102420007105C1F061507109882777FD8095982F5B
:102430008AD72FE135E841E051E40E94AA1A20E052
:1024400030E040E450E47CD64BD7CB01089580E0E7
:1024500090E008958CEF93E00895CF92DF92EF9291
:10246000FF920F931F93CF93DF938C016B01FC01BD
:10247000808108D37C01E601CC0FDD1FC00FD11F86
:10248000FB82EA82F801EC0DFD1D8289CA8CDB8C8F
:10249000882399F0C114D10429F4F7E9EF16F10467
:1024A0004CF41BC082E3E816F104D4F0EFE7CE163B
:1024B000D10499F08FE790E018C0B601C801ACDFF5
:1024C0000297E816F90674F0B6016F5F7F4FC801F6
:1024D000A3DF01968E159F052CF08FEF9FEF07C0AD
:1024E00080E0E9CFB701C80176DF8A8F9B8FDF914B
:1024F000CF911F910F91FF90EF90DF90CF900895B3
:1025000020E030E0FC01E20FF31F628B2F5F3F4FB2
:1025100028303105B9F70895480F591FFA01628B29
:102520000895883008F06DC0E82FF0E0EE0FFF1F2F
:10253000E35FF74E7183608390E0FC013197E730F1
:10254000F10590F5EE57FF4F0C94B71B8091690091
:102550008C7F842B80936900E89A089580916900AC
:10256000440F551F440F551F837F842B80936900B0
:10257000E99A08958091690074E0440F551F7A9597
:10258000E1F78F7C842B80936900EA9A089580910B
:10259000690066E0440F551F6A95E1F78F73842B3D
:1025A00080936900EB9A089580916A008C7F842B58
:1025B00080936A00EC9A089580916A00440F551F39
:1025C000440F551F837F842B80936A00ED9A0895F2
:1025D00080916A0024E0440F551F2A95E1F78F7C13
:1025E000842B80936A00EE9A089580916A0096E0A9
:1025F000440F551F9A95E1F78F73842B80936A00DF
:10260000EF9A08951F920F920FB60F9211240BB6F6
:102610000F922F933F934F935F936F937F938F937B
:102620009F93AF93BF93EF93FF9380911118909175
:102630001218892B29F0E0911118F09112181995B0
:10264000FF91EF91BF91AF919F918F917F916F918A
:102650005F914F913F912F910F900BBE0F900FBE46
:102660000F901F9018951F920F920FB60F92112482
:102670000BB60F922F933F934F935F936F937F937C
:102680008F939F93AF93BF93EF93FF938091131812
:1026900090911418892B29F0E0911318F0911418D7
:1026A0001995FF91EF91BF91AF919F918F917F917C
:1026B0006F915F914F913F912F910F900BBE0F90B3
:1026C0000FBE0F901F9018951F920F920FB60F928A
:1026D00011240BB60F922F933F934F935F936F93F9
:1026E0007F938F939F93AF93BF93EF93FF938091CB
:1026F000151890911618892B29F0E0911518F09172
:1027000016181995FF91EF91BF91AF919F918F91FD
:102710007F916F915F914F913F912F910F900BBEE1
:102720000F900FBE0F901F9018951F920F920FB62B
:102730000F9211240BB60F922F933F934F935F93F9
:102740006F937F938F939F93AF93BF93EF93FF9379
:102750008091171890911818892B29F0E09117187B
:10276000F09118181995FF91EF91BF91AF919F913A
:102770008F917F916F915F914F913F912F910F902A
:102780000BBE0F900FBE0F901F9018951F920F92C7
:102790000FB60F9211240BB60F922F933F934F93C6
:1027A0005F936F937F938F939F93AF93BF93EF93B9
:1027B000FF9380910D1890910E18892B29F0E091CC
:1027C0000D18F0910E181995FF91EF91BF91AF91EF
:1027D0009F918F917F916F915F914F913F912F9139
:1027E0000F900BBE0F900FBE0F901F9018951F9269
:1027F0000F920FB60F9211240BB60F922F933F93A7
:102800004F935F936F937F938F939F93AF93BF93F8
:10281000EF93FF9380910F1890911018892B29F056
:10282000E0910F18F09110181995FF91EF91BF9159
:10283000AF919F918F917F916F915F914F913F9158
:102840002F910F900BBE0F900FBE0F901F901895F9
:102850001F920F920FB60F9211240BB60F922F9367
:102860003F934F935F936F937F938F939F93AF9318
:10287000BF93EF93FF938091191890911A18892BA9
:1028800029F0E0911918F0911A181995FF91EF911C
:10289000BF91AF919F918F917F916F915F914F9178
:1028A0003F912F910F900BBE0F900FBE0F901F9076
:1028B00018951F920F920FB60F9211240BB60F921C
:1028C0002F933F934F935F936F937F938F939F9338
:1028D000AF93BF93EF93FF9380911B1890911C18B7
:1028E000892B29F0E0911B18F0911C181995FF9184
:1028F000EF91BF91AF919F918F917F916F915F9178
:102900004F913F912F910F900BBE0F900FBE0F90E4
:102910001F9018951F920F920FB60F9211242F93AC
:102920003F938F939F93AF93BF9380911E18909185
:102930001F18A0912018B091211830911D1823E084
:10294000230F2D3720F40196A11DB11D05C026E8E7
:10295000230F0296A11DB11D20931D1880931E18F0
:1029600090931F18A0932018B093211880912218DB
:1029700090912318A0912418B09125180196A11DBB
:10298000B11D8093221890932318A0932418B0931C
:102990002518BF91AF919F918F913F912F910F90EB
:1029A0000FBE0F901F9018952FB7F89460911E18C6
:1029B00070911F1880912018909121182FBF0895B1
:1029C000789484B5826084BD84B5816084BD85B50A
:1029D000826085BD85B5816085BDEEE6F0E08081D1
:1029E00081608083E1E8F0E01082808182608083F2
:1029F000808181608083E0E8F0E080818160808375
:102A0000E1EBF0E0808184608083E0EBF0E08081A6
:102A100081608083E1E9F0E0808182608083808151
:102A200081608083E0E9F0E0808181608083E1EA79
:102A3000F0E0808182608083808181608083E0EA31
:102A4000F0E0808181608083E1E2F1E0808182605A
:102A50008083808181608083E0E2F1E08081816019
:102A60008083EAE7F0E080818460808380818260F7
:102A700080838081816080838081806880831092E0
:102A8000C1000895863308F0865320917B00982F6B
:102A90009870277F922B90937B0087702091000283
:102AA00090E4299F90011124822B80937C008091D7
:102AB0007A00806480937A0080917A0086FDFCCF52
:102AC000809178002091790090E0922B089590E019
:102AD000FC013197E231F10508F04BC0E757FF4F99
:102AE00046C6809180008F7703C0809180008F7DE3
:102AF00080938000089580918000877FF9CF84B50E
:102B00008F7702C084B58F7D84BD08958091B00019
:102B10008F7703C08091B0008F7D8093B0000895BF
:102B2000809190008F7707C0809190008F7D03C0C7
:102B300080919000877F8093900008958091A000FD
:102B40008F7707C08091A0008F7D03C08091A00087
:102B5000877F8093A0000895809120018F7707C020
:102B6000809120018F7D03C080912001877F809319
:102B700020010895CF93DF9390E0FC01E656FE4FCD
:102B80002491FC01E052FE4F8491882349F190E0AA
:102B9000880F991FFC01E65AFD4FA591B491805C06
:102BA0009D4FFC01C591D4919FB7611108C0F89465
:102BB0008C91209582238C93888182230AC0623075
:102BC00051F4F8948C91322F309583238C93888123
:102BD000822B888304C0F8948C91822B8C939FBFA6
:102BE000DF91CF9108950F931F93CF93DF931F929F
:102BF000CDB7DEB7282F30E0F901EC5AFE4F8491B3
:102C0000F901E656FE4F1491F901E052FE4F04918E
:102C10000023C1F0882319F0698359DF6981E02F0F
:102C2000F0E0EE0FFF1FE05CFD4FA591B4919FB760
:102C3000F8948C91611103C01095812301C0812B00
:102C40008C939FBF0F90DF91CF911F910F910895AB
:102C5000CF93DF93282F30E0F901EC5AFE4F849197
:102C6000F901E656FE4FD491F901E052FE4FC491AE
:102C7000CC2389F081112BDFEC2FF0E0EE0FFF1F4A
:102C8000EA5DFD4FA591B4912C912D2381E090E058
:102C900021F480E002C080E090E0DF91CF910895C0
:102CA000FC01818D228D90E0805C9F4F821B9109F9
:102CB0008F7399270895FC01918D828D981731F0BB
:102CC000828DE80FF11D858D90E008958FEF9FEFC5
:102CD0000895FC01918D828D981761F0828DDF013E
:102CE000A80FB11D5D968C91928D9F5F9F73928FFF
:102CF00090E008958FEF9FEF08958EE198E1892B82
:102D000039F080E090E0892B19F098D1811125C02D
:102D100080E090E0892B41F080E090E0892B21F069
:102D20000E94000081111CC080E090E0892B41F0DE
:102D300080E090E0892B21F00E940000811113C0F7
:102D400080E090E0892BA1F080E090E0892B81F079
:102D50000E94000081110AC008950E940000D8CF8F
:102D60000E940000E1CF0E940000EACF0C94000016
:102D70000895FC01848DDF01A80FB11DA35ABF4F38
:102D80002C91848D90E001968F739927848FA6896A
:102D9000B7892C93A089B1898C9180648C93938D91
:102DA000848D981306C00288F389E02D80818F7D81
:102DB00080830895CF93DF93EC01888D8823C1F041
:102DC000EA89FB89808185FD05C0A889B9898C9134
:102DD00086FD0EC00FB607FCF5CF808185FFF2CFD0
:102DE000A889B9898C9185FFEDCFCE01C2DFE8CFEC
:102DF000DF91CF910895CF92DF92FF920F931F93AF
:102E0000CF93DF931F92CDB7DEB76C0181E0D6017F
:102E100058968C9358975B969C915B975C968C9197
:102E20005C97981307C05096ED91FC915197808163
:102E300085FD2DC0F601038D10E00F5F1F4F0F734E
:102E40001127F02EF601848DF81210C00FB607FC82
:102E5000F9CFD6015096ED91FC915197808185FF75
:102E6000F1CFC601698385DF6981ECCF838DE80FDF
:102E7000F11DE35AFF4F6083D6015B960C935B977D
:102E80005296ED91FC915397808180620CC0D601DF
:102E90005696ED91FC91579760835096ED91FC9179
:102EA000519780818064808381E090E00F90DF9172
:102EB000CF911F910F91FF90DF90CF900895BF9217
:102EC000CF92DF92EF92FF92CF93DF93EC016A01F2
:102ED0007B01B22EE889F98982E08083411581EE79
:102EE00058076105710599F060E079E08DE390E0A5
:102EF000A70196011AD4215031094109510956956B
:102F0000479537952795211580E1380790F0E88996
:102F1000F989108260E874E88EE190E0A7019601DB
:102F200004D42150310941095109569547953795E7
:102F30002795EC85FD853083EE85FF852083188EEF
:102F4000EC89FD89B082EA89FB8980818061808378
:102F5000EA89FB89808188608083EA89FB89808196
:102F600080688083EA89FB8980818F7D8083DF91FF
:102F7000CF91FF90EF90DF90CF90BF9008951F9278
:102F80000F920FB60F9211240BB60F922F938F93BF
:102F90009F93EF93FF93E0913618F091371880815B
:102FA000E0913C18F0913D1882FD12C09081809113
:102FB0003F188F5F8F7320914018821751F0E09176
:102FC0003F18F0E0EA5DF74E958F80933F1801C0FF
:102FD0008081FF91EF919F918F912F910F900BBE68
:102FE0000F900FBE0F901F9018951F920F920FB663
:102FF0000F9211240BB60F922F933F934F935F9331
:103000006F937F938F939F93AF93BF93EF93FF93B0
:1030100086E298E1AEDEFF91EF91BF91AF919F9173
:103020008F917F916F915F914F913F912F910F9071
:103030000BBE0F900FBE0F901F90189586E298E17F
:103040002FDE21E0892B09F420E0822F08951092D1
:1030500029181092281888EE93E0A0E0B0E0809341
:103060002A1890932B18A0932C18B0932D1885E64E
:1030700092E0909327188093261885EC90E0909327
:1030800033188093321884EC90E090933518809335
:10309000341880EC90E0909337188093361881ECC8
:1030A00090E0909339188093381882EC90E09093D8
:1030B0003B1880933A1886EC90E090933D188093EB
:1030C0003C1810923F18109240181092411810921C
:1030D00042180895089574DCFDDF0E947602CDE762
:1030E000D6E10E94FF072097E1F307DEFACFCF92E7
:1030F000DF92EF92FF920F931F93CF93DF936C01B8
:103100007A01EB01E60EF71E00E010E0CE15DF05B8
:1031100061F06991D601ED91FC910190F081E02D73
:10312000C6011995080F191FF1CFC801DF91CF9182
:103130001F910F91FF90EF90DF90CF90089550581E
:10314000BB27AA270ED0B1C1A2D130F0A7D120F061
:1031500031F49F3F11F41EF497C10EF4E095E7FBA4
:1031600064C1E92FB3D180F3BA17620773078407EC
:10317000950718F071F49EF5E2C10EF4E0950B2E60
:10318000BA2FA02D0B01B90190010C01CA01A001B9
:103190001124FF27591B99F0593F50F4503E68F114
:1031A0001A16F040A22F232F342F4427585FF3CF55
:1031B000469537952795A795F0405395C9F77EF426
:1031C0001F16BA0B620B730B840BBAF09150A1F06F
:1031D000FF0FBB1F661F771F881FC2F70EC0BA0FF5
:1031E000621F731F841F48F4879577956795B7957D
:1031F000F7959E3F08F0B3CF9395880F08F0992775
:10320000EE0F979587950895ECD008F481E0089526
:103210000CD04BC143D140F03AD130F021F45F3FA4
:1032200019F003C151118CC12FC150D198F39923CA
:10323000C9F35523B1F3951B550BBB27AA2762177A
:103240007307840738F09F5F5F4F220F331F441FBF
:10325000AA1FA9F333D00E2E3AF0E0E830D09150F7
:103260005040E695001CCAF729D0FE2F27D0660FE4
:10327000771F881FBB1F261737074807AB07B0E823
:1032800009F0BB0B802DBF01FF2793585F4F2AF039
:103290009E3F510568F0C9C053C15F3FECF3983EB3
:1032A000DCF3869577956795B795F7959F5FC9F796
:1032B000880F911D9695879597F90895E1E0660F1F
:1032C000771F881FBB1F621773078407BA0720F098
:1032D000621B730B840BBA0BEE1F88F7E095089501
:1032E00004D06894B1112CC10895F8D088F09F578C
:1032F00090F0B92F9927B751A0F0D1F0660F771F42
:10330000881F991F1AF0BA95C9F712C0B13081F021
:1033100016D1B1E0089513C1672F782F8827B85FC1
:1033200039F0B93FCCF3869577956795B395D9F782
:103330003EF490958095709561957F4F8F4F9F4F8C
:103340000895E89409C097FB3EF490958095709598
:1033500061957F4F8F4F9F4F9923A9F0F92F96E9E1
:10336000BB279395F695879577956795B795F11156
:10337000F8CFFAF4BB0F11F460FF1BC06F5F7F4FF3
:103380008F4F9F4F16C0882311F096E911C0772305
:1033900021F09EE8872F762F05C0662371F096E80E
:1033A000862F70E060E02AF09A95660F771F881FDD
:1033B000DAF7880F9695879597F90895A9D080F048
:1033C0009F3740F491110EF0BBC060E070E080E8E0
:1033D0009FEB089526F41B16611D711D811D2BC0E6
:1033E00045C0990F0008550FAA0BE0E8FEEF16162E
:1033F0001706E807F907C0F012161306E407F507E9
:1034000098F0621B730B840B950B39F40A2661F05C
:10341000232B242B252B21F408950A2609F4A140FF
:10342000A6958FEF811D811D089597F99F6780E80C
:1034300070E060E00895882371F4772321F09850BC
:10344000872B762F07C0662311F499270DC0905162
:10345000862B70E060E02AF09A95660F771F881F30
:10346000DAF7880F9695879597F908959F3F31F081
:10347000915020F4879577956795B795880F911DA2
:103480009695879597F908959FEF80EC089500240D
:103490000A941616170618060906089500240A94B9
:1034A00012161306140605060895092E0394000C3F
:1034B00011F4882352F0BB0F40F4BF2B11F460FFCE
:1034C00004C06F5F7F4F8F4F9F4F089557FD9058F7
:1034D000440F551F59F05F3F71F04795880F97FBD8
:1034E000991F61F09F3F79F0879508951216130692
:1034F0001406551FF2CF4695F1DF08C016161706C1
:103500001806991FF1CF86957105610508940895F5
:10351000E5DFA0F0BEE7B91788F4BB279F3860F459
:103520001616B11D672F782F8827985FF7CF8695DD
:1035300077956795B11D93959639C8F30895E894EA
:10354000BB2766277727CB0197F908954ADF08F450
:103550008FEF08950BD0A9CF9ADF28F09FDF18F0E6
:10356000952309F062CF90CF1124EACFAFDFA0F30B
:10357000959FD1F3950F50E0551F629FF001729F08
:10358000BB27F00DB11D639FAA27F00DB11DAA1F27
:10359000649F6627B00DA11D661F829F2227B00D74
:1035A000A11D621F739FB00DA11D621F839FA00DFF
:1035B000611D221F749F3327A00D611D231F849F4F
:1035C000600D211D822F762F6A2F11249F575040A6
:1035D0008AF0E1F088234AF0EE0FFF1FBB1F661F41
:1035E000771F881F91505040A9F79E3F510570F0FA
:1035F0001CCFA6CF5F3FECF3983EDCF38695779522
:103600006795B795F795E7959F5FC1F7FE2B880FF4
:10361000911D9695879597F908959F9305D00F90E2
:1036200007FCEE5F28C030CF59DFE8F3E894E0E014
:10363000BB279F57F0F02AED3FE049EC06C0EE0FA4
:10364000BB0F661F771F881F28F0B23A6207730707
:10365000840728F0B25A620B730B840BE3959A959A
:1036600072F7803830F49A95BB0F661F771F881F5A
:10367000D2F79048FDCEEF93E0FF06C0A2EA2AED14
:103680003FE049EC5FEB6DDD10DF0F90039401FC30
:103690009058E6E3F1E000C09F938F937F936F9380
:1036A000FF93EF939B01AC0155DFEF91FF9105D0A4
:1036B0002F913F914F915F914DCFDF93CF931F9308
:1036C0000F93FF92EF92DF927B018C01689405C00B
:1036D000DA2EEF014BDFFE01E894A591259135919B
:1036E00045915591AEF3EF013CDDFE019701A80134
:1036F000DA9479F7DF90EF90FF900F911F91CF91BF
:10370000DF91089597FB072E16F4009406D077FDFD
:1037100008D03DD007FC05D03EF4909581959F4F91
:103720000895709561957F4F0895A1E21A2EAA1B06
:10373000BB1BFD010DC0AA1FBB1FEE1FFF1FA21761
:10374000B307E407F50720F0A21BB30BE40BF50B5E
:10375000661F771F881F991F1A9469F760957095E7
:10376000809590959B01AC01BD01CF010895EE0FAE
:10377000FF1F0590F491E02D1994B7FF1CC01BD0DA
:10378000821B930B08950790F691E02D1994AA1BC4
:10379000BB1B51E107C0AA1FBB1FA617B70710F03C
:1037A000A61BB70B881F991F5A95A9F7809590956E
:1037B000BC01CD01089509D0A59F900DB49F900D37
:1037C000A49F800D911D11240895A29FB001B39F65
:1037D000C001A39F700D811D1124911DB29F700D1A
:1037E000811D1124911D0895DC0101C06D9341508C
:1037F0005040E0F7089512E0C8E7D2E000E005C0CD
:1038000022970109FE010BBFBEDFCA37D10780E056
:083810000807B1F7F894FFCF9F
:103818000117151211181D1C19161413101A1F1E42
:103828001B0001020308090A040506070B0C0D0E0C
:103838000F08000109020A030B0C04050D060E0708
:103848000F2828282810121311141528282828288A
:103858002811191A121B131C14151D1E161F1720C8
:103868001801090A020B030C04050D0E060F0710B8
:103878000800000000FB167718501669165B16DA68
:02388800160028
:00000001FF
